{
  "_format": "hh-sol-artifact-1",
  "contractName": "AppContract",
  "sourceName": "contracts/AppContract.sol",
  "abi": [
    {
      "inputs": [
        {
          "internalType": "address",
          "name": "_user",
          "type": "address"
        },
        {
          "internalType": "string",
          "name": "url",
          "type": "string"
        },
        {
          "internalType": "string",
          "name": "name",
          "type": "string"
        },
        {
          "internalType": "string",
          "name": "Type",
          "type": "string"
        },
        {
          "internalType": "string",
          "name": "size",
          "type": "string"
        }
      ],
      "name": "add",
      "outputs": [],
      "stateMutability": "nonpayable",
      "type": "function"
    },
    {
      "inputs": [
        {
          "internalType": "address",
          "name": "_user",
          "type": "address"
        }
      ],
      "name": "allowAccess",
      "outputs": [],
      "stateMutability": "nonpayable",
      "type": "function"
    },
    {
      "inputs": [
        {
          "internalType": "address",
          "name": "_user",
          "type": "address"
        }
      ],
      "name": "disAllowAccess",
      "outputs": [],
      "stateMutability": "nonpayable",
      "type": "function"
    },
    {
      "inputs": [
        {
          "internalType": "address",
          "name": "_user",
          "type": "address"
        }
      ],
      "name": "displayImages",
      "outputs": [
        {
          "components": [
            {
              "internalType": "string",
              "name": "url",
              "type": "string"
            },
            {
              "internalType": "string",
              "name": "name",
              "type": "string"
            },
            {
              "internalType": "string",
              "name": "Type",
              "type": "string"
            },
            {
              "internalType": "string",
              "name": "size",
              "type": "string"
            }
          ],
          "internalType": "struct AppContract.fileData[]",
          "name": "url",
          "type": "tuple[]"
        }
      ],
      "stateMutability": "view",
      "type": "function"
    },
    {
      "inputs": [],
      "name": "shareAccessList",
      "outputs": [
        {
          "components": [
            {
              "internalType": "address",
              "name": "user",
              "type": "address"
            },
            {
              "internalType": "bool",
              "name": "access",
              "type": "bool"
            }
          ],
          "internalType": "struct AppContract.Access[]",
          "name": "",
          "type": "tuple[]"
        }
      ],
      "stateMutability": "view",
      "type": "function"
    }
  ],
  "bytecode": "0x608060405234801561001057600080fd5b50611654806100206000396000f3fe608060405234801561001057600080fd5b50600436106100575760003560e01c80632543c6931461005c57806342fac8d61461008c578063b5b99c85146100a8578063c4a85bc1146100c4578063e07554d2146100e0575b600080fd5b61007660048036038101906100719190610c8a565b6100fe565b6040516100839190610e81565b60405180910390f35b6100a660048036038101906100a19190610c8a565b6104e2565b005b6100c260048036038101906100bd9190610fd8565b610704565b005b6100de60048036038101906100d99190610c8a565b6107ed565b005b6100e8610b0f565b6040516100f591906111cb565b60405180910390f35b60603373ffffffffffffffffffffffffffffffffffffffff168273ffffffffffffffffffffffffffffffffffffffff1614806101c05750600160008373ffffffffffffffffffffffffffffffffffffffff1673ffffffffffffffffffffffffffffffffffffffff16815260200190815260200160002060003373ffffffffffffffffffffffffffffffffffffffff1673ffffffffffffffffffffffffffffffffffffffff16815260200190815260200160002060009054906101000a900460ff165b6101ff576040517f08c379a00000000000000000000000000000000000000000000000000000000081526004016101f690611270565b60405180910390fd5b6000808373ffffffffffffffffffffffffffffffffffffffff1673ffffffffffffffffffffffffffffffffffffffff168152602001908152602001600020805480602002602001604051908101604052809291908181526020016000905b828210156104d75783829060005260206000209060040201604051806080016040529081600082018054610290906112bf565b80601f01602080910402602001604051908101604052809291908181526020018280546102bc906112bf565b80156103095780601f106102de57610100808354040283529160200191610309565b820191906000526020600020905b8154815290600101906020018083116102ec57829003601f168201915b50505050508152602001600182018054610322906112bf565b80601f016020809104026020016040519081016040528092919081815260200182805461034e906112bf565b801561039b5780601f106103705761010080835404028352916020019161039b565b820191906000526020600020905b81548152906001019060200180831161037e57829003601f168201915b505050505081526020016002820180546103b4906112bf565b80601f01602080910402602001604051908101604052809291908181526020018280546103e0906112bf565b801561042d5780601f106104025761010080835404028352916020019161042d565b820191906000526020600020905b81548152906001019060200180831161041057829003601f168201915b50505050508152602001600382018054610446906112bf565b80601f0160208091040260200160405190810160405280929190818152602001828054610472906112bf565b80156104bf5780601f10610494576101008083540402835291602001916104bf565b820191906000526020600020905b8154815290600101906020018083116104a257829003601f168201915b5050505050815250508152602001906001019061025d565b505050509050919050565b6000600160003373ffffffffffffffffffffffffffffffffffffffff1673ffffffffffffffffffffffffffffffffffffffff16815260200190815260200160002060008373ffffffffffffffffffffffffffffffffffffffff1673ffffffffffffffffffffffffffffffffffffffff16815260200190815260200160002060006101000a81548160ff02191690831515021790555060005b600260003373ffffffffffffffffffffffffffffffffffffffff1673ffffffffffffffffffffffffffffffffffffffff16815260200190815260200160002080549050811015610700578173ffffffffffffffffffffffffffffffffffffffff16600260003373ffffffffffffffffffffffffffffffffffffffff1673ffffffffffffffffffffffffffffffffffffffff168152602001908152602001600020828154811061062c5761062b6112f0565b5b9060005260206000200160000160009054906101000a900473ffffffffffffffffffffffffffffffffffffffff1673ffffffffffffffffffffffffffffffffffffffff16036106ed576000600260003373ffffffffffffffffffffffffffffffffffffffff1673ffffffffffffffffffffffffffffffffffffffff16815260200190815260200160002082815481106106c8576106c76112f0565b5b9060005260206000200160000160146101000a81548160ff0219169083151502179055505b80806106f890611358565b91505061057a565b5050565b6000808673ffffffffffffffffffffffffffffffffffffffff1673ffffffffffffffffffffffffffffffffffffffff168152602001908152602001600020604051806080016040528086815260200185815260200184815260200183815250908060018154018082558091505060019003906000526020600020906004020160009091909190915060008201518160000190816107a1919061154c565b5060208201518160010190816107b7919061154c565b5060408201518160020190816107cd919061154c565b5060608201518160030190816107e3919061154c565b5050505050505050565b60018060003373ffffffffffffffffffffffffffffffffffffffff1673ffffffffffffffffffffffffffffffffffffffff16815260200190815260200160002060008373ffffffffffffffffffffffffffffffffffffffff1673ffffffffffffffffffffffffffffffffffffffff16815260200190815260200160002060006101000a81548160ff02191690831515021790555060005b600260008373ffffffffffffffffffffffffffffffffffffffff1673ffffffffffffffffffffffffffffffffffffffff16815260200190815260200160002080549050811015610a0f578173ffffffffffffffffffffffffffffffffffffffff16600260003373ffffffffffffffffffffffffffffffffffffffff1673ffffffffffffffffffffffffffffffffffffffff1681526020019081526020016000208281548110610936576109356112f0565b5b9060005260206000200160000160009054906101000a900473ffffffffffffffffffffffffffffffffffffffff1673ffffffffffffffffffffffffffffffffffffffff16036109fc576001600260003373ffffffffffffffffffffffffffffffffffffffff1673ffffffffffffffffffffffffffffffffffffffff16815260200190815260200160002082815481106109d2576109d16112f0565b5b9060005260206000200160000160146101000a81548160ff02191690831515021790555050610b0c565b8080610a0790611358565b915050610884565b50600260003373ffffffffffffffffffffffffffffffffffffffff1673ffffffffffffffffffffffffffffffffffffffff16815260200190815260200160002060405180604001604052808373ffffffffffffffffffffffffffffffffffffffff168152602001600115158152509080600181540180825580915050600190039060005260206000200160009091909190915060008201518160000160006101000a81548173ffffffffffffffffffffffffffffffffffffffff021916908373ffffffffffffffffffffffffffffffffffffffff16021790555060208201518160000160146101000a81548160ff02191690831515021790555050505b50565b6060600260003373ffffffffffffffffffffffffffffffffffffffff1673ffffffffffffffffffffffffffffffffffffffff168152602001908152602001600020805480602002602001604051908101604052809291908181526020016000905b82821015610c0f578382906000526020600020016040518060400160405290816000820160009054906101000a900473ffffffffffffffffffffffffffffffffffffffff1673ffffffffffffffffffffffffffffffffffffffff1673ffffffffffffffffffffffffffffffffffffffff1681526020016000820160149054906101000a900460ff16151515158152505081526020019060010190610b70565b50505050905090565b6000604051905090565b600080fd5b600080fd5b600073ffffffffffffffffffffffffffffffffffffffff82169050919050565b6000610c5782610c2c565b9050919050565b610c6781610c4c565b8114610c7257600080fd5b50565b600081359050610c8481610c5e565b92915050565b600060208284031215610ca057610c9f610c22565b5b6000610cae84828501610c75565b91505092915050565b600081519050919050565b600082825260208201905092915050565b6000819050602082019050919050565b600081519050919050565b600082825260208201905092915050565b60005b83811015610d1d578082015181840152602081019050610d02565b60008484015250505050565b6000601f19601f8301169050919050565b6000610d4582610ce3565b610d4f8185610cee565b9350610d5f818560208601610cff565b610d6881610d29565b840191505092915050565b60006080830160008301518482036000860152610d908282610d3a565b91505060208301518482036020860152610daa8282610d3a565b91505060408301518482036040860152610dc48282610d3a565b91505060608301518482036060860152610dde8282610d3a565b9150508091505092915050565b6000610df78383610d73565b905092915050565b6000602082019050919050565b6000610e1782610cb7565b610e218185610cc2565b935083602082028501610e3385610cd3565b8060005b85811015610e6f5784840389528151610e508582610deb565b9450610e5b83610dff565b925060208a01995050600181019050610e37565b50829750879550505050505092915050565b60006020820190508181036000830152610e9b8184610e0c565b905092915050565b600080fd5b600080fd5b7f4e487b7100000000000000000000000000000000000000000000000000000000600052604160045260246000fd5b610ee582610d29565b810181811067ffffffffffffffff82111715610f0457610f03610ead565b5b80604052505050565b6000610f17610c18565b9050610f238282610edc565b919050565b600067ffffffffffffffff821115610f4357610f42610ead565b5b610f4c82610d29565b9050602081019050919050565b82818337600083830152505050565b6000610f7b610f7684610f28565b610f0d565b905082815260208101848484011115610f9757610f96610ea8565b5b610fa2848285610f59565b509392505050565b600082601f830112610fbf57610fbe610ea3565b5b8135610fcf848260208601610f68565b91505092915050565b600080600080600060a08688031215610ff457610ff3610c22565b5b600061100288828901610c75565b955050602086013567ffffffffffffffff81111561102357611022610c27565b5b61102f88828901610faa565b945050604086013567ffffffffffffffff8111156110505761104f610c27565b5b61105c88828901610faa565b935050606086013567ffffffffffffffff81111561107d5761107c610c27565b5b61108988828901610faa565b925050608086013567ffffffffffffffff8111156110aa576110a9610c27565b5b6110b688828901610faa565b9150509295509295909350565b600081519050919050565b600082825260208201905092915050565b6000819050602082019050919050565b6110f881610c4c565b82525050565b60008115159050919050565b611113816110fe565b82525050565b60408201600082015161112f60008501826110ef565b506020820151611142602085018261110a565b50505050565b60006111548383611119565b60408301905092915050565b6000602082019050919050565b6000611178826110c3565b61118281856110ce565b935061118d836110df565b8060005b838110156111be5781516111a58882611148565b97506111b083611160565b925050600181019050611191565b5085935050505092915050565b600060208201905081810360008301526111e5818461116d565b905092915050565b600082825260208201905092915050565b7f596f7520646f6e7420686176652061636365737320746f2074686520696d616760008201527f6573206f662074686973206163636f756e740000000000000000000000000000602082015250565b600061125a6032836111ed565b9150611265826111fe565b604082019050919050565b600060208201905081810360008301526112898161124d565b9050919050565b7f4e487b7100000000000000000000000000000000000000000000000000000000600052602260045260246000fd5b600060028204905060018216806112d757607f821691505b6020821081036112ea576112e9611290565b5b50919050565b7f4e487b7100000000000000000000000000000000000000000000000000000000600052603260045260246000fd5b7f4e487b7100000000000000000000000000000000000000000000000000000000600052601160045260246000fd5b6000819050919050565b60006113638261134e565b91507fffffffffffffffffffffffffffffffffffffffffffffffffffffffffffffffff82036113955761139461131f565b5b600182019050919050565b60008190508160005260206000209050919050565b60006020601f8301049050919050565b600082821b905092915050565b6000600883026114027fffffffffffffffffffffffffffffffffffffffffffffffffffffffffffffffff826113c5565b61140c86836113c5565b95508019841693508086168417925050509392505050565b6000819050919050565b600061144961144461143f8461134e565b611424565b61134e565b9050919050565b6000819050919050565b6114638361142e565b61147761146f82611450565b8484546113d2565b825550505050565b600090565b61148c61147f565b61149781848461145a565b505050565b5b818110156114bb576114b0600082611484565b60018101905061149d565b5050565b601f821115611500576114d1816113a0565b6114da846113b5565b810160208510156114e9578190505b6114fd6114f5856113b5565b83018261149c565b50505b505050565b600082821c905092915050565b600061152360001984600802611505565b1980831691505092915050565b600061153c8383611512565b9150826002028217905092915050565b61155582610ce3565b67ffffffffffffffff81111561156e5761156d610ead565b5b61157882546112bf565b6115838282856114bf565b600060209050601f8311600181146115b657600084156115a4578287015190505b6115ae8582611530565b865550611616565b601f1984166115c4866113a0565b60005b828110156115ec578489015182556001820191506020850194506020810190506115c7565b868310156116095784890151611605601f891682611512565b8355505b6001600288020188555050505b50505050505056fea2646970667358221220c7a54e77ae200f5fee3dbf7d94c9947b3a3593acabc2ce2a23f0c9408ed524a664736f6c63430008110033",
  "linkReferences": {},
  "deployedLinkReferences": {}
}